{"abi":[{"type":"function","name":"getDocumentInfo","inputs":[{"name":"hash","type":"bytes32","internalType":"bytes32"}],"outputs":[{"name":"documentHash","type":"bytes32","internalType":"bytes32"},{"name":"timestamp","type":"uint256","internalType":"uint256"},{"name":"signer","type":"address","internalType":"address"},{"name":"signature","type":"bytes","internalType":"bytes"}],"stateMutability":"view"},{"type":"function","name":"getDocumentSignature","inputs":[{"name":"hash","type":"bytes32","internalType":"bytes32"}],"outputs":[{"name":"signature","type":"bytes","internalType":"bytes"}],"stateMutability":"view"},{"type":"function","name":"isDocumentStored","inputs":[{"name":"hash","type":"bytes32","internalType":"bytes32"}],"outputs":[{"name":"exists","type":"bool","internalType":"bool"}],"stateMutability":"view"},{"type":"function","name":"storeDocumentHash","inputs":[{"name":"hash","type":"bytes32","internalType":"bytes32"},{"name":"timestamp","type":"uint256","internalType":"uint256"},{"name":"signature","type":"bytes","internalType":"bytes"}],"outputs":[{"name":"success","type":"bool","internalType":"bool"}],"stateMutability":"nonpayable"},{"type":"function","name":"verifyDocument","inputs":[{"name":"hash","type":"bytes32","internalType":"bytes32"},{"name":"signer","type":"address","internalType":"address"},{"name":"signature","type":"bytes","internalType":"bytes"}],"outputs":[{"name":"isValid","type":"bool","internalType":"bool"}],"stateMutability":"view"},{"type":"event","name":"DocumentStored","inputs":[{"name":"hash","type":"bytes32","indexed":true,"internalType":"bytes32"},{"name":"signer","type":"address","indexed":true,"internalType":"address"},{"name":"timestamp","type":"uint256","indexed":false,"internalType":"uint256"}],"anonymous":false}],"bytecode":{"object":"0x6080604052348015600e575f5ffd5b5061166a8061001c5f395ff3fe608060405234801561000f575f5ffd5b5060043610610055575f3560e01c8063090b0a301461005957806346fad8991461008c578063bc6fda25146100bc578063dd4ad4b6146100ec578063f623a2c61461011c575b5f5ffd5b610073600480360381019061006e9190610a15565b61014c565b6040516100839493929190610b16565b60405180910390f35b6100a660048036038101906100a19190610a15565b610303565b6040516100b39190610b7a565b60405180910390f35b6100d660048036038101906100d19190610c1e565b61032b565b6040516100e39190610b7a565b60405180910390f35b61010660048036038101906101019190610cb9565b6105cb565b6040516101139190610b7a565b60405180910390f35b61013660048036038101906101319190610a15565b610719565b6040516101439190610d2a565b60405180910390f35b5f5f5f60605f5f8681526020019081526020015f206004015f9054906101000a900460ff166101b0576040517f08c379a00000000000000000000000000000000000000000000000000000000081526004016101a790610dca565b60405180910390fd5b5f5f5f8781526020019081526020015f206040518060a00160405290815f820154815260200160018201548152602001600282015f9054906101000a900473ffffffffffffffffffffffffffffffffffffffff1673ffffffffffffffffffffffffffffffffffffffff1673ffffffffffffffffffffffffffffffffffffffff16815260200160038201805461024490610e15565b80601f016020809104026020016040519081016040528092919081815260200182805461027090610e15565b80156102bb5780601f10610292576101008083540402835291602001916102bb565b820191905f5260205f20905b81548152906001019060200180831161029e57829003601f168201915b50505050508152602001600482015f9054906101000a900460ff1615151515815250509050805f01518160200151826040015183606001519450945094509450509193509193565b5f5f5f8381526020019081526020015f206004015f9054906101000a900460ff169050919050565b5f5f5f1b8503610370576040517f08c379a000000000000000000000000000000000000000000000000000000000815260040161036790610eb5565b60405180910390fd5b5f5f8681526020019081526020015f206004015f9054906101000a900460ff16156103d0576040517f08c379a00000000000000000000000000000000000000000000000000000000081526004016103c790610f43565b60405180910390fd5b5f6103dc86858561081b565b90505f73ffffffffffffffffffffffffffffffffffffffff168173ffffffffffffffffffffffffffffffffffffffff160361044c576040517f08c379a000000000000000000000000000000000000000000000000000000000815260040161044390610fd1565b60405180910390fd5b6040518060a001604052808781526020018681526020018273ffffffffffffffffffffffffffffffffffffffff16815260200185858080601f0160208091040260200160405190810160405280939291908181526020018383808284375f81840152601f19601f820116905080830192505050505050508152602001600115158152505f5f8881526020019081526020015f205f820151815f0155602082015181600101556040820151816002015f6101000a81548173ffffffffffffffffffffffffffffffffffffffff021916908373ffffffffffffffffffffffffffffffffffffffff160217905550606082015181600301908161054c91906111bc565b506080820151816004015f6101000a81548160ff0219169083151502179055509050508073ffffffffffffffffffffffffffffffffffffffff16867f26ad08a07a21a75bfa696129b53a22d710a416ca3941ed4110a27e41c2ac679a876040516105b6919061128b565b60405180910390a36001915050949350505050565b5f5f5f8681526020019081526020015f206004015f9054906101000a900460ff1661062b576040517f08c379a000000000000000000000000000000000000000000000000000000000815260040161062290610dca565b60405180910390fd5b5f73ffffffffffffffffffffffffffffffffffffffff168473ffffffffffffffffffffffffffffffffffffffff1603610699576040517f08c379a000000000000000000000000000000000000000000000000000000000815260040161069090611314565b60405180910390fd5b5f6106a586858561081b565b90508473ffffffffffffffffffffffffffffffffffffffff168173ffffffffffffffffffffffffffffffffffffffff1614801561070e57505f73ffffffffffffffffffffffffffffffffffffffff168173ffffffffffffffffffffffffffffffffffffffff1614155b915050949350505050565b60605f5f8381526020019081526020015f206004015f9054906101000a900460ff1661077a576040517f08c379a000000000000000000000000000000000000000000000000000000000815260040161077190610dca565b60405180910390fd5b5f5f8381526020019081526020015f20600301805461079890610e15565b80601f01602080910402602001604051908101604052809291908181526020018280546107c490610e15565b801561080f5780601f106107e65761010080835404028352916020019161080f565b820191905f5260205f20905b8154815290600101906020018083116107f257829003601f168201915b50505050509050919050565b5f60418383905014610862576040517f08c379a0000000000000000000000000000000000000000000000000000000008152600401610859906113a2565b60405180910390fd5b5f5f5f853592506020860135915060408601355f1a9050601b8160ff16101561089557601b8161089291906113f9565b90505b601b8160ff1614806108aa5750601c8160ff16145b6108e9576040517f08c379a00000000000000000000000000000000000000000000000000000000081526004016108e09061149d565b60405180910390fd5b5f876040516020016108fb919061152f565b6040516020818303038152906040528051906020012090506001818386866040515f81526020016040526040516109359493929190611563565b6020604051602081039080840390855afa158015610955573d5f5f3e3d5ffd5b5050506020604051035194505f73ffffffffffffffffffffffffffffffffffffffff168573ffffffffffffffffffffffffffffffffffffffff16036109cf576040517f08c379a00000000000000000000000000000000000000000000000000000000081526004016109c690611616565b60405180910390fd5b505050509392505050565b5f5ffd5b5f5ffd5b5f819050919050565b6109f4816109e2565b81146109fe575f5ffd5b50565b5f81359050610a0f816109eb565b92915050565b5f60208284031215610a2a57610a296109da565b5b5f610a3784828501610a01565b91505092915050565b610a49816109e2565b82525050565b5f819050919050565b610a6181610a4f565b82525050565b5f73ffffffffffffffffffffffffffffffffffffffff82169050919050565b5f610a9082610a67565b9050919050565b610aa081610a86565b82525050565b5f81519050919050565b5f82825260208201905092915050565b8281835e5f83830152505050565b5f601f19601f8301169050919050565b5f610ae882610aa6565b610af28185610ab0565b9350610b02818560208601610ac0565b610b0b81610ace565b840191505092915050565b5f608082019050610b295f830187610a40565b610b366020830186610a58565b610b436040830185610a97565b8181036060830152610b558184610ade565b905095945050505050565b5f8115159050919050565b610b7481610b60565b82525050565b5f602082019050610b8d5f830184610b6b565b92915050565b610b9c81610a4f565b8114610ba6575f5ffd5b50565b5f81359050610bb781610b93565b92915050565b5f5ffd5b5f5ffd5b5f5ffd5b5f5f83601f840112610bde57610bdd610bbd565b5b8235905067ffffffffffffffff811115610bfb57610bfa610bc1565b5b602083019150836001820283011115610c1757610c16610bc5565b5b9250929050565b5f5f5f5f60608587031215610c3657610c356109da565b5b5f610c4387828801610a01565b9450506020610c5487828801610ba9565b935050604085013567ffffffffffffffff811115610c7557610c746109de565b5b610c8187828801610bc9565b925092505092959194509250565b610c9881610a86565b8114610ca2575f5ffd5b50565b5f81359050610cb381610c8f565b92915050565b5f5f5f5f60608587031215610cd157610cd06109da565b5b5f610cde87828801610a01565b9450506020610cef87828801610ca5565b935050604085013567ffffffffffffffff811115610d1057610d0f6109de565b5b610d1c87828801610bc9565b925092505092959194509250565b5f6020820190508181035f830152610d428184610ade565b905092915050565b5f82825260208201905092915050565b7f46696c654861736853746f726167653a20646f63756d656e7420646f6573206e5f8201527f6f74206578697374000000000000000000000000000000000000000000000000602082015250565b5f610db4602883610d4a565b9150610dbf82610d5a565b604082019050919050565b5f6020820190508181035f830152610de181610da8565b9050919050565b7f4e487b71000000000000000000000000000000000000000000000000000000005f52602260045260245ffd5b5f6002820490506001821680610e2c57607f821691505b602082108103610e3f57610e3e610de8565b5b50919050565b7f46696c654861736853746f726167653a20686173682063616e6e6f74206265205f8201527f7a65726f00000000000000000000000000000000000000000000000000000000602082015250565b5f610e9f602483610d4a565b9150610eaa82610e45565b604082019050919050565b5f6020820190508181035f830152610ecc81610e93565b9050919050565b7f46696c654861736853746f726167653a20646f63756d656e7420616c726561645f8201527f792073746f726564000000000000000000000000000000000000000000000000602082015250565b5f610f2d602883610d4a565b9150610f3882610ed3565b604082019050919050565b5f6020820190508181035f830152610f5a81610f21565b9050919050565b7f46696c654861736853746f726167653a20696e76616c6964207369676e6174755f8201527f7265000000000000000000000000000000000000000000000000000000000000602082015250565b5f610fbb602283610d4a565b9150610fc682610f61565b604082019050919050565b5f6020820190508181035f830152610fe881610faf565b9050919050565b7f4e487b71000000000000000000000000000000000000000000000000000000005f52604160045260245ffd5b5f819050815f5260205f209050919050565b5f6020601f8301049050919050565b5f82821b905092915050565b5f600883026110787fffffffffffffffffffffffffffffffffffffffffffffffffffffffffffffffff8261103d565b611082868361103d565b95508019841693508086168417925050509392505050565b5f819050919050565b5f6110bd6110b86110b384610a4f565b61109a565b610a4f565b9050919050565b5f819050919050565b6110d6836110a3565b6110ea6110e2826110c4565b848454611049565b825550505050565b5f5f905090565b6111016110f2565b61110c8184846110cd565b505050565b5b8181101561112f576111245f826110f9565b600181019050611112565b5050565b601f821115611174576111458161101c565b61114e8461102e565b8101602085101561115d578190505b6111716111698561102e565b830182611111565b50505b505050565b5f82821c905092915050565b5f6111945f1984600802611179565b1980831691505092915050565b5f6111ac8383611185565b9150826002028217905092915050565b6111c582610aa6565b67ffffffffffffffff8111156111de576111dd610fef565b5b6111e88254610e15565b6111f3828285611133565b5f60209050601f831160018114611224575f8415611212578287015190505b61121c85826111a1565b865550611283565b601f1984166112328661101c565b5f5b8281101561125957848901518255600182019150602085019450602081019050611234565b868310156112765784890151611272601f891682611185565b8355505b6001600288020188555050505b505050505050565b5f60208201905061129e5f830184610a58565b92915050565b7f46696c654861736853746f726167653a207369676e65722063616e6e6f7420625f8201527f65207a65726f0000000000000000000000000000000000000000000000000000602082015250565b5f6112fe602683610d4a565b9150611309826112a4565b604082019050919050565b5f6020820190508181035f83015261132b816112f2565b9050919050565b7f46696c654861736853746f726167653a207369676e6174757265206c656e67745f8201527f68206d7573742062652036352062797465730000000000000000000000000000602082015250565b5f61138c603283610d4a565b915061139782611332565b604082019050919050565b5f6020820190508181035f8301526113b981611380565b9050919050565b5f60ff82169050919050565b7f4e487b71000000000000000000000000000000000000000000000000000000005f52601160045260245ffd5b5f611403826113c0565b915061140e836113c0565b9250828201905060ff811115611427576114266113cc565b5b92915050565b7f46696c654861736853746f726167653a20696e76616c6964207369676e6174755f8201527f726520762076616c756500000000000000000000000000000000000000000000602082015250565b5f611487602a83610d4a565b91506114928261142d565b604082019050919050565b5f6020820190508181035f8301526114b48161147b565b9050919050565b5f81905092915050565b7f19457468657265756d205369676e6564204d6573736167653a0a3332000000005f82015250565b5f6114f9601c836114bb565b9150611504826114c5565b601c82019050919050565b5f819050919050565b611529611524826109e2565b61150f565b82525050565b5f611539826114ed565b91506115458284611518565b60208201915081905092915050565b61155d816113c0565b82525050565b5f6080820190506115765f830187610a40565b6115836020830186611554565b6115906040830185610a40565b61159d6060830184610a40565b95945050505050565b7f46696c654861736853746f726167653a20696e76616c6964207369676e6174755f8201527f7265207265636f76657279000000000000000000000000000000000000000000602082015250565b5f611600602b83610d4a565b915061160b826115a6565b604082019050919050565b5f6020820190508181035f83015261162d816115f4565b905091905056fea26469706673582212209158b62c61ddc53e8def366376daa2e2e27a2ef61a978c8361a9e97f3de6073064736f6c634300081e0033","linkReferences":{}},"methodIdentifiers":{"getDocumentInfo(bytes32)":"090b0a30","getDocumentSignature(bytes32)":"f623a2c6","isDocumentStored(bytes32)":"46fad899","storeDocumentHash(bytes32,uint256,bytes)":"bc6fda25","verifyDocument(bytes32,address,bytes)":"dd4ad4b6"},"id":17}